:020000020000FC
:100000000C94FF000C94F6000C94F6000C94F6008F
:100010000C94F6000C94F6000C94F6000C94F60088
:100020000C94F6000C94F6000C94F6000C94F70077
:100030000C94F6000C94F6000C94F6000C94F60068
:100040000C94F6000C94F6000C94F6000C94F60058
:100050000C94F6000C94F6000C94F6000C94F60048
:0C0060000C94F6000C94F6000C94FF00C9
:1001EC0018950F920FB60F925D980F900FBE0F904F
:1001FC00189508E00EBF0FEF0DBF0E9463020E941E
:10020C00D6020E9437030E94C0030E94D9030E94A9
:10021C001C0380E0809300010AE000930D0100E0D4
:10022C0000930E017BC00E94BA014B9B3FC05F98AC
:10023C004C990C9427015F985D9A0E9488020C944B
:10024C004701809100014A990C943A015D9A0E94F1
:10025C008F02833059F100910D0110910E01010FA5
:10026C00003079F00C945501809100018330D9F263
:10027C00289800E007BD0E94E401903001F10C9435
:10028C00190181E0809300010E940302289800E08C
:10029C0007BD80E080930D0180930E01C4CF83E0F5
:1002AC0080930001289A03E207BDBDCF84E08093C0
:1002BC00000128984B9B5F9A00E007BDB4CF82E009
:1002CC008093000128985F9800E007BDA0910D0174
:1002DC00B0910E0150910201573860F4B03039F4EE
:1002EC00A03049F0AA3018F4A0E00C9481011A97C0
:1002FC000C9481011A96A0930D01B0930E010E94EB
:10030C009F010E94B2020E94E401509104015030FE
:10031C00B1F284E0809300010C94190180E0809389
:10032C00000180E080930F0180930D0180930E01FA
:10033C007ACF0E94F102E0E8F4E001E00E94F802BA
:10034C00EEE9F4E001E00E94F8020E942E02E2EBDA
:10035C00F4E001E00E94F802109100010E949C025E
:10036C00022F0E94E30208950E94940260910F01F3
:10037C006A30E1F460E060930F01009100010330FA
:10038C0099F4A0910D01B0910E01A395119739F438
:10039C0071E070930001289800E007BD05C011972B
:1003AC00A0930D01B0930E010E949F0160910F016B
:1003BC00639560930F0108950C94190180E00E94DD
:1003CC0023039295990F990F86958695892B809387
:1003DC00030181E00E9423039295990F990F869552
:1003EC008695892B8093020190E0833718F087382B
:1003FC0008F491E090930401089592E00E94D503D3
:10040C00182F0E949C02012FF22E10E00E94000473
:10041C0011E00F2D0E94000491E00E94D503182FCB
:10042C000E949C02012FF22E12E00E94000413E0A5
:10043C000F2D0E94000490E00E94D503182F0E94FB
:10044C009C02012F0E940004022F0E9400040895B8
:10045C0000910D0110910E010E94BE0200930A0141
:10046C0000930B0100930C01E5E0F1E000E00E9429
:10047C00F802089552616D73656E204F7261686168
:10048C002C2043757272656E742054696D653A2028
:10049C0020000909436F6F6B696E672054696D65A5
:1004AC003A2020202000090943757272656E742071
:1004BC0053746174653A202020008AB1806E8AB929
:1004CC0084B1836084B98AB1837E8AB98BB18C6123
:1004DC008BB901E804BD05E005BD00E007BD40E0B7
:1004EC004093800046E0409389004AE140938800A5
:1004FC0002E000936F0078944DE0409381000895E2
:10050C004C9B5D9A4C9B0C9488025D9808954A9B79
:10051C005D9A4A9B0C948F025D9808952FEF81EEA3
:10052C0094E0215080409040E1F70895212F2F70E6
:10053C00206312951F7010630895212F1F7000E324
:10054C001A3008F007E3100F22952F7000E32A30C1
:10055C0008F007E3200F089540E458EC6AEF000020
:10056C0000006A95E1F75A95C9F74A95B1F70895D5
:10057C00E0EAF5E0A5E0B1E02FE225903590239577
:10058C0002191309E0F7020D131D2D93C8950020D5
:10059C0099F708951027E80364000A000100000091
:1005AC0040E04093C50047E64093C40048E14093C7
:1005BC00C10046E04093C20008954091C00045FF41
:1005CC00FCCF0093C60008954091C00047FFFCCFBC
:1005DC006091C60008950DE00E94E3020AE00E94BB
:1005EC00E3020895013029F00191003039F0E5DF84
:1005FC00FBCF0591003011F0E0DFFBCF0895E4DF75
:10060C006D3019F430E03C9308956C93062FD5DFD0
:10061C00683039F4AA95B04000E2CFDF08E0CDDFB6
:10062C00EECFA39540E0B41FEACF089580E4809309
:10063C007C0087E880937A000895ECE7F0E09081E5
:10064C008770987F892B8083EAE7F0E08081806453
:10065C008083808186FDFDCF809178009091790018
:10066C00089550E05093B90058E45093B80054E00A
:10067C005093BC0008950E944803089584E9809328
:10068C00BC00089544EA4093BC00ECEBF0E04081E0
:10069C004423ECF77093BB0084E88093BC00ECEB34
:1006AC00F0E080818823ECF74091B900487B81E031
:1006BC00483109F080E0089554E85093BC00509103
:1006CC00BC0057FFFCCFB091BB00089584EC809325
:1006DC00BC00ECEBF0E080818823ECF78091BB0050
:1006EC00089584E88093BC00ECEBF0E080818823D3
:1006FC00ECF78091BB0008958093BB0084E8809355
:10070C00BC00CCEBD0E088818823ECF74091B90099
:10071C0081E0463209F480E008950E944103892F5C
:10072C000E948203862F0E9482030E944403089534
:10073C00672F0E944103892F0E94820371E0760F7C
:10074C000E9441030E947703682F0E944403862F66
:10075C0008950E944103892F0E948203209739F04B
:10076C00F80181918F010E9482032197C9F70E94A1
:10077C004403089570ED0E94410370ED97E060E032
:10078C000E94930392E061E00E94930391E060E089
:10079C000E94930390E060E00E949303089570ED33
:1007AC000E949E03089570EE0E94410381E20E9414
:1007BC0082030E9444030E94410381E80E94820349
:1007CC000E9444030E94410385EE0E9482030E9412
:1007DC00440300E210E00E94000400E211E00E94D9
:1007EC00000400E212E00E94000400E213E00E9408
:1007FC0000040895E2E3F8E00052000FE00F00E07F
:10080C00F01F2591349170EE0E944103812F880FC7
:10081C000E948203822F0E948203832F0E948203F4
:10082C000E9444030895000006002002CE12ED122F
:10083C00240C5D23000400240009C03FC0120008F2
:10084C00C0000000000C3F000600DB00CF00E600FB
:10085C00ED00FD000700FF00EF000012000A00246D
:10086C00C80000098310BB02F7008F1239000F1269
:10087C00F9007100BD00F60000121E007024380053
:10088C00360536213F00F3003F20F320ED00011226
:10089C003E00300C3628002D0015090C39000021C3
:1008AC000F00030C0800000158107820D8008E08A7
:1008BC00580871008E04701000100E0000363000C5
:1008CC00D4105010DC007001860450008820780091
:1008DC001C0004201428C0280C20480849090012C8
:0608EC0089242005FF3FF6
:00000001FF
